:020000040800F2
:10000000C807002035110008590400085B040008E7
:100010005F04000863040008670400080000000093
:100020000000000000000000000000006B04000859
:100030006D040008000000006F040008710400084F
:100040004F1100084F1100084F1100084F11000810
:100050004F1100084F1100084F1100084F11000800
:100060004F1100084F1100084F1100084F110008F0
:100070004F1100084F1100084F1100084F110008E0
:100080004F1100084F1100084F1100084F110008D0
:100090004F1100084F1100084F1100084F110008C0
:1000A0004F1100084F1100084F1100084F110008B0
:1000B0004F1100084F1100084F1100084F110008A0
:1000C0004F1100084F1100084F1100084F11000890
:1000D0004F110008AB1000084F1100084F11000825
:1000E0004F1100084F1100084F1100084F11000870
:1000F0004F1100084F1100084F1100084F11000860
:100100004F1100084F1100084F1100084F1100084F
:100110004F1100084F1100084F1100084F1100083F
:100120004F1100084F1100084F1100084F1100082F
:1001300000F002F800F03CF80AA090E8000C8244BD
:100140008344AAF10107DA4501D100F031F8AFF29A
:10015000090EBAE80F0013F0010F18BFFB1A43F0A5
:1001600001031847A02B0000C02B0000103A24BF49
:1001700078C878C1FAD8520724BF30C830C144BF0C
:1001800004680C607047000000230024002500264E
:10019000103A28BF78C1FBD8520728BF30C148BFEA
:1001A0000B607047002070471FB51FBD10B510BD14
:1001B00002F0F2F91146FFF7F7FF00F055F802F0F0
:1001C00010FA03B4FFF7F2FF03BC00F011FF0000C8
:1001D000028891B2CA1701EB1262120A8C4B9A7014
:1001E000028891B2CA1701EB12621212A1EB02222D
:1001F000DA70828891B2CA1701EB1262120A1A7180
:10020000828891B2CA1701EB12621212A1EB02228C
:100210005A71028991B2CA1701EB1262120A9A71DD
:10022000028991B2CA1701EB12621212A1EB0222EB
:10023000DA71828991B2CA1701EB1262120A1A723C
:10024000828991B2CA1701EB12621212A1EB02224B
:100250005A727047002004E0FF216D4A1154411C7E
:10026000C8B20928F8DB704700F054FE00F0BAFE6F
:100270004FF4165000F0CAFE00F0EAF900F08CFAD4
:1002800000F00CFA00F03AFC0EE06248006808B991
:10029000012000E000205F4908604FF0C80000F036
:1002A00075FE5DA002F006F900F0B7FC0128ECD065
:1002B0005CA002F0FFF800F06AFDA8E0FF205449BE
:1002C0000870487000205A49087022E0584909789F
:1002D000491CC8B200F0E8FA5649554A127821F88C
:1002E000120008465249097830F811005249504A24
:1002F000127851F82210401A50494D4A127841F8AC
:10030000220001204E49087049480078401C4849A5
:100310000870474800780228D8DB0220444908705A
:1003200022E0434909780A31C8B200F0BDFA4149D8
:100330003F4A127821F8120008463D49097830F802
:1003400011003D493A4A127851F82210401A3B49AF
:10035000374A127841F822000120394908703448A0
:100360000078401C32490870314800780428D8DBF6
:100370003448007858B3012000F096FA2D490880DF
:100380000846008840F6B831884220DD4FF47A7084
:1003900000F0FCFD012000F087FA2649088008469D
:1003A000008840F6B831884211DDFFF753FF00F0B6
:1003B000EEFC174800F07AFC202803D1FF21E12051
:1003C00000F04FFC0120204908701E4908701E48AB
:1003D000007801281BD11A480078C0B101201B49C0
:1003E00008701648FFF7F4FE00F0D1FC084800F052
:1003F0005DFC202806D116A002F05CF8FF21E12068
:1004000000F02FFC0020114908700D49087055E7D5
:1004100060000020948121424E52462065726F7226
:100420000D0A00004E5246204F4B0D0A00000000FE
:100430000400002006000020900000205000002052
:100440000000002002000020030000200100002026
:100450002D2D2D2D4F4B0000704700BFFEE700BF34
:10046000FEE700BFFEE700BFFEE77047704770473A
:10047000704700000CB50020019000906B480068A8
:1004800040F480306949086000BF6848006800F4A3
:10049000003000900198401C0190009818B9019814
:1004A000B0F5A06FF1D16148006810F4003F02D0B0
:1004B0000120009001E0002000900098012842D126
:1004C0005B48006840F01000594908600846006821
:1004D00020F0030008600846006840F00200086051
:1004E000524840685149486008464068486008469C
:1004F000406840F4806048600846406820F47C1002
:1005000048600846406840F4E810486008460068C3
:1005100040F08070086000BF4448006810F0007F21
:10052000FAD04248406820F003004049486008463D
:10053000406840F00200486000BF3C48406800F05E
:100540000C000828F9D10CBD10B5FFF793FF10BDC2
:1005500010B53648006840F001003449086008468C
:1005600040683449084031494860084600683249CB
:1005700008402E4908600846006820F48020086082
:100580000846406820F4FE0048604FF41F00886071
:10059000FFF7DAFF4FF000602849086010BD10B582
:1005A000002100200022214B5B6803F00C0121B1E7
:1005B000042906D0082928D107E0214B214C2360CB
:1005C00027E01F4B1F4C236023E0184B5B6803F4AC
:1005D0007010164B5B6803F48032022303EB9040EB
:1005E00022B9194B4343174C23600DE00F4B5B6856
:1005F00013F4003F04D0144B4343124C236003E038
:100600000F4B43430F4C236003E00D4B0D4C236015
:1006100000BF00BF054B5B68C3F303130B4CE15CE9
:10062000084B1B68CB40074C236010BD00100240F4
:10063000002002400000FFF8FFFFF6FE08ED00E09A
:1006400000127A001000002000093D001400002074
:1006500008B50121482001F039FB2020ADF8000049
:1006600010208DF8030003208DF802006946094828
:1006700001F076F82021074801F01DF92020ADF89F
:1006800000006946044801F06BF82021024801F09F
:1006900012F908BD000C01400018014008B5012105
:1006A000442001F013FB3C20ADF8000048208DF8F9
:1006B00003006946354801F053F80120ADF8000009
:1006C00028208DF803006946314801F049F808BD3B
:1006D00010B5044614B101202E4908702D48007849
:1006E000002837D01021294801F0CBF878B1082133
:1006F000264801F0C6F850B10421244801F0C1F8A1
:1007000028B10121224801F0BCF8012822D10A2099
:1007100000F03CFC00201F49087010211B4801F02C
:10072000B0F808B9012010BD0821184801F0A9F857
:1007300008B90220F7E70421144801F0A2F808B92B
:100740000320F0E70121124801F09BF801281BD19A
:100750000420E8E710210D4801F093F8012813D197
:1007600008210A4801F08DF801280DD1042107481D
:1007700001F087F8012807D10121054801F081F82F
:1007800010B90120034908700020CCE7001801408F
:10079000000801402400002000B587B001214FF47B
:1007A000057001F093FA4FF4004001F0F6F90620CD
:1007B000ADF8040000208DF8070001A9C24800F040
:1007C000CFFF0C20ADF8040000208DF8070001A930
:1007D000BE4800F0C5FFBE4800F03AFD0020029080
:1007E0008DF80C008DF80D004FF46020049000206F
:1007F000059004208DF8180002A9B54800F04FFDBF
:10080000072301221146B24800F0E1FD072302222E
:100810001146AF4800F0DBFD072303220C21AC4852
:1008200000F0D5FD072304220D21A94800F0CFFDDB
:100830000121A74800F05FFDA54800F07EFD00BF44
:10084000A34800F07FFD0028FAD1A14800F084FD04
:1008500000BF9F4800F085FD0028FAD101219C4887
:1008600000F089FD07B000BD0146994834300068AA
:1008700020F01F00964A343210601046006808438A
:10088000106093480830006840F48000904A0832B5
:10089000106000BF8E48006810F0020FFAD08C483C
:1008A0004C30006880B270472DE9F0438BB0814630
:1008B00000270BE04846FFF7D7FF8046012000F0F5
:1008C00065FB01A820F81780781C87B2142FF1DB94
:1008D00000251EE0002416E001A830F8141001AA3B
:1008E000601C32F8100081420BDD01A830F8146062
:1008F00001A9601C31F8100021F81400601C21F8D7
:100900001060601C84B2C5F11400A042E4DC681CD5
:1009100085B2132DDEDB002600240EE0C4F10A00B0
:1009200001A931F81000811904F10A0001AA32F876
:100930001000084486B2601C84B2052CEEDB0A204D
:1009400096FBF0F080B20BB0BDE8F0832DE9F041EA
:1009500060A001F0AFFD00206249087052E0002065
:100960006149087029E05F490978491CC8B2FFF75E
:100970009BFF5E495B4A127821F81200594A1278AF
:1009800031F8120002F067F804460D465848554900
:10099000097800EBC100D0E90063324620462946C1
:1009A00001F02AFE524A4F4B1B7802EBC30203C2EE
:1009B0004D480078401C4C4908704B4800780A2884
:1009C000D1DB4B484749097800EBC1000022494B75
:1009D000D0E90061304601F0B7FE044602F00CF8A1
:1009E0004549404A127841F822000020404A3D4BD8
:1009F0001B7802EBC302106050603A480078401C3C
:100A000038490870374800780228A8DB02203549A9
:100A1000087052E000203449087029E03149097813
:100A20000A31C8B2FFF740FF30492E4A127821F848
:100A300012002C4A127831F8120002F00CF8044629
:100A40000D462B482749097800EBC100D0E9006327
:100A500032462046294601F0CFFD254A214B1B781E
:100A600002EBC30203C220480078401C1E490870F4
:100A70001D4800780A28D1DB1D481A49097800EB87
:100A8000C10000221B4BD0E90061304601F05CFE42
:100A9000044601F0B1FF1849124A127841F82200C9
:100AA0000021134A0F4B1B7802EBC3021160516007
:100AB0000C480078401C0B4908700A48007804284C
:100AC000A8DBBDE8F08100000008014000100140F3
:100AD0000024014046494E44204F524947494E0D9B
:100AE0000A00000026000020270000202800002027
:100AF00070000020000024409000002000B587B066
:100B00000121142001F0E2F81020ADF818000320B4
:100B10008DF81A0010208DF81B0006A9B24800F0CD
:100B20001FFE06A9B14800F01BFE2020ADF81800FA
:100B300048208DF81B0003208DF81A0006A9AB4849
:100B400000F00EFE00F08FF90021A94801F0F5FB3E
:100B50000020ADF804004FF48270ADF806000020CC
:100B6000ADF80800ADF80A00ADF80C004FF40070C5
:100B7000ADF80E001820ADF810000020ADF81200FE
:100B80000720ADF8140001A9994801F031FB0121BB
:100B9000974801F0D2FB0020964908604FF0010011
:100BA0009549C1F8900107B000BD2DE9F041074615
:100BB0000D461646002091490860384600F02CF991
:100BC0008046002405E0FF2000F026F92855601C2F
:100BD000C4B2B442F7DB0120884908604046BDE852
:100BE000F0812DE9F04107460C4615460020834967
:100BF0000860384600F010F98046002605E014F839
:100C0000010B00F009F9701CC6B2AE42F7DB0120FF
:100C10007A4908604046BDE8F0811CB578A103C957
:100C2000CDE90001082000F05FF905226946302077
:100C3000FFF7D7FF052269461020FFF7B6FF002413
:100C400006E01DF80400A52800D003E0601CC4B233
:100C5000052CF6DB00BF052C01D001201CBD0020B7
:100C6000FCE770B505460C4600206449086028463C
:100C700000F0D2F80646204600F0CEF801205E498A
:100C8000C1F89001304670BD70B5044600205B4944
:100C90000860204600F0C0F8FF2000F0BDF80546CF
:100CA00001205549C1F89001284670BD70B5054630
:100CB000102000F019F900204E4908604FF0200282
:100CC00029464FF0A000FFF78CFF01204E49C1F8E4
:100CD000900100BF4D4800680028FBD14FF007008D
:100CE000FFF7D2FF044621462720FFF7BAFF14F092
:100CF000100F05D0FF21E120FFF7B3FF102070BDDA
:100D000014F0200F01D02020F9E7FF20F7E770B59D
:100D100004460720FFF7B8FF054629462720FFF7BE
:100D2000A0FF202221466120FFF73FFFFF21E220A4
:100D3000FFF797FF002070BD10B500202D49086017
:100D40004FF0050232494FF02A00FFF74AFF012118
:100D50002120FFF786FF01212220FFF782FF2821B3
:100D60002520FFF77EFF20213120FFF77AFF0F219A
:100D70002620FFF776FF0F212020FFF772FF0120CA
:100D80002149C1F89001782000F0DDF810BD10B5C0
:100D90000020184908604FF005021E494FF030004E
:100DA000FFF71FFF05221A492A20FFF71AFF01212A
:100DB0002120FFF756FF01212220FFF752FF1A21C1
:100DC0002420FFF74EFF28212520FFF74AFF0F219F
:100DD0002620FFF746FF0E212020FFF742FF0120CB
:100DE0000949C1F8900110BD000801400010014000
:100DF0000030014090012142000022429001224235
:100E0000A5A5A5A5A50000000000214214012242CD
:100E1000FD2C0008F82C000870B50546002405E0FC
:100E2000601CC4B2C82C01DD002070BD022137480F
:100E300001F007FB0028F3D02946344801F0AEFA50
:100E4000002405E0601CC4B2C82C01DD0020ECE7E2
:100E500001212E4801F0F5FA0028F3D02B4801F0CB
:100E60009FFAC0B2E1E700B587B0012141F204006A
:100E700000F02CFFE020ADF8180018208DF81B00C2
:100E800003208DF81A0006A9214800F069FCE02132
:100E90001F4800F010FD0020ADF804004FF48270F0
:100EA000ADF806000020ADF808000220ADF80A00F9
:100EB0000120ADF80C004002ADF80E003820ADF86E
:100EC00010000020ADF812000720ADF8140001A9B1
:100ED0000E4801F08DF901210C4801F02EFAFF2097
:100EE000FFF79AFF07B000BD10B504460748008819
:100EF0004FF6C7710840054908800846008820431E
:100F000008800121014801F018FA10BD00300140AD
:100F10000008014010B56FF0040000F07BF92D4887
:100F200000682D49B0FBF1F02C49087008460078A4
:100F300000EB4001C1EBC0104FF6FF7101EAC000A9
:100F40002749088010BD0146244A12784A434FF0D1
:100F5000E0235A6100229A611A46126942F00102A6
:100F60001A6100BF4FF0E022106910F0010F02D0AB
:100F700010F4803FF6D04FF0E022126922F0010217
:100F80004FF0E0231A6100229A6170470146144A2B
:100F900012884A434FF0E0235A6100229A611A46B0
:100FA000126942F001021A6100BF4FF0E02210699D
:100FB00010F0010F02D010F4803FF6D04FF0E02285
:100FC000126922F001024FF0E0231A6100229A61B7
:100FD000704700001000002000127A00300000204E
:100FE0003200002010B54FF4A06000F0C3F810BD2F
:100FF000014600BF704700BF4A4A128812F0400FF6
:10100000FAD0C2B2474B1B1D1A80704710B586B08C
:101010000446012144F2040000F058FE414800F06B
:10102000BDFE4FF40070ADF8140003208DF81600DB
:1010300018208DF8170005A93B4800F091FB4FF4EC
:101040008060ADF8140004208DF8170005A936481B
:1010500000F086FB25208DF8000003208DF80100AC
:101060008DF8020001208DF80300684600F087F833
:1010700001940020ADF80800ADF80A00ADF80C00AE
:10108000ADF810000C20ADF80E0001A9254800F0C5
:10109000C8FE012240F22551224800F05AFF0121EA
:1010A000204800F04AFF06B010BD10B540F22551AF
:1010B0001C4801F033F810B31A4800F0AFFFC4B277
:1010C0001A48008810F4004F2BD11848008810F4FB
:1010D000804F0CD00A2C03D000201449088020E057
:1010E0001248008840F400401049088019E00D2C97
:1010F00006D10E48008840F480400C49088010E07A
:101100000A480088C0F30D0009490C5407480088BC
:10111000401C0649088008460088C72801DD0020D9
:10112000088010BD00380140000801403400002054
:10113000A00000200948804709480047FEE7FEE775
:10114000FEE7FEE7FEE7FEE7FEE7FEE7FEE7FEE777
:1011500004480549054A064B704700005105000840
:1011600031010008C8010020C8070020C803002082
:10117000C803002031490143314A1160704770B5FE
:10118000002100230F22C4780CB32D4C246804F4F2
:10119000E064C4F5E064210AC1F10403CA40447864
:1011A00004FA03F18478144021430901254C0678A0
:1011B000A155047804F01F050124AC4005786D1199
:1011C0004FF0E02606EB8505C5F8004109E00478FC
:1011D00004F01F050124AC401B4D0678761145F83C
:1011E000264070BD194A0A400243154B1B1F1A6066
:1011F000704739B1124A121D12680243104B1B1D71
:101200001A6006E00E4A121D126882430C4B1B1D29
:101210001A607047042808D14FF0E021096941F0B5
:1012200004014FF0E022116107E04FF0E02109696D
:1012300021F004014FF0E022116170470000FA052F
:101240000CED00E000E400E080E100E080FFFF1F23
:1012500010B50446FA48844208D10121401500F037
:101260004FFD0021601500F04BFD17E0F54884426A
:1012700008D10121001500F043FD0021201500F0E8
:101280003FFD0BE0F048844208D10121C80300F083
:1012900037FD00214FF4004000F032FD10BD30B5A5
:1012A0000246002000235068E84C20400D790C686D
:1012B00044EA0524204350609068E54C2040D1E981
:1012C00002542C434D7944EA450420439060D06A8F
:1012D00020F470000C7C641EE4B2234340EA035007
:1012E000D06230BD00210160017141718160C16037
:1012F00001210174704721B1826842F001028260CD
:1013000003E0826822F001028260704721B18268A6
:1013100042F48072826003E0826822F4807282600C
:10132000704710B50023CBB21AB144681C43446027
:1013300002E044689C43446010BD816841F00801AC
:1013400081607047014600208A6812F0080F01D0C2
:10135000012000E000207047816841F004018160B5
:101360007047014600208A6812F0040F01D0012066
:1013700000E00020704721B1826842F4A002826040
:1013800003E0826822F4A0028260704701460020D8
:101390008A6812F4800F01D0012000E0002070471D
:1013A00010B50A4600210023416821F46041531E14
:1013B00041EA4331416010BD21B1426842F400620C
:1013C000426003E0426822F4006242607047F0B578
:1013D00004460D4600200021092D11DDE068A5F12D
:1013E0000A0606EB4607072606FA07F18843A5F129
:1013F0000A0606EB460603FA06F10843E0600CE035
:10140000206905EB4507072606FA07F1884305EB37
:10141000450603FA06F108432061072A0FDA606BDC
:10142000561E06EB86071F2606FA07F18843561E4E
:1014300006EB860605FA06F10843606322E00D2AF2
:101440000FDA206BD61F06EB86071F2606FA07F178
:101450008843D61F06EB860605FA06F1084320638B
:1014600010E0E06AA2F10D0606EB86071F2606FAD9
:1014700007F18843A2F10D0606EB860605FA06F190
:101480000843E062F0BD21B1826842F480128260BC
:1014900003E0826822F48012826070470146C86CC3
:1014A00080B2704766484C300068704721B142688E
:1014B00042F48062426003E0426822F4806242604B
:1014C000704721B1426842F48052426003E04268B2
:1014D00022F48052426070470A460021816821F45C
:1014E000E04111438160704721B1826842F40042BB
:1014F000826003E0826822F400428260704721B17A
:10150000826842F40212826003E0826822F40212CE
:1015100082607047014600208A6812F4001F01D0E3
:10152000012000E000207047F0B504461546002079
:1015300000220026092911DDE068A1F10A0707EB66
:10154000470C072707FA0CF29043A1F10A0707EBB3
:10155000470703FA07F21043E0600CE0206901EB53
:10156000410C072707FA0CF2904301EB410703FAFD
:1015700007F210432061A06BC0F30156EF1C06F187
:10158000010CA7EB0C0707EB870C1F2707FA0CF2DF
:101590009043EF1C06F1010CA7EB0C0707EB870744
:1015A00001FA07F21043A063F0BD10B50A4600210E
:1015B0000023816B21F44011531E41EA03518163E2
:1015C00010BD08B5002300930090009B0B440093CE
:1015D000009B1A6008BD08B50246002000900092EA
:1015E00001F12800009B184400900098006880B228
:1015F00008BD0A4600214168164B1940114341605D
:1016000070474162826270470A460021416821F0BA
:101610001F0111434160704740B109490831096811
:1016200041F40001064A0832116007E0044908311C
:10163000096821F40001024A083211607047000075
:101640000024014000280140003C0140FFFEF0FF63
:10165000FDF7F1FFFFFD3FFF0246002013680B423C
:1016600001D0012000E000207047CA4302607047AB
:1016700070B502460020002300240B125568CEB23C
:1016800005EA060415681D4202D00CB1012000E0F5
:10169000002070BD00220A12D3430360704700008F
:1016A00010B50446CA48844208D10121042000F044
:1016B00027FB0021042000F023FB46E0C5488442BC
:1016C00008D10121082000F01BFB0021082000F0B8
:1016D00017FB3AE0C048844208D10121102000F0F5
:1016E0000FFB0021102000F00BFB2EE0BB488442D2
:1016F00008D10121202000F003FB0021202000F070
:10170000FFFA22E0B648844208D10121402000F0CF
:10171000F7FA0021402000F0F3FA16E0B1488442C5
:1017200008D10121802000F0EBFA0021802000F098
:10173000E7FA0AE0AC48844207D10121801500F0A5
:10174000DFFA0021A01500F0DBFA10BD10B5012171
:10175000084600F0D5FA0021012000F0D1FA10BDB2
:101760002DE9F04102460025002600200023002438
:10177000002791F803C00CF00F0591F803C01CF08E
:10178000100F03D091F802C04CEA050591F800C093
:10179000BCF1000F31D0146800202BE04FF0010C99
:1017A0000CFA00F3B1F800C00CEA03069E4220D107
:1017B00083004FF00F0C0CFA03F7BC4305FA03FC4F
:1017C0004CEA040491F803C0BCF1280F06D14FF095
:1017D000010C0CFA00FCC2F814C00AE091F803C036
:1017E000BCF1480F05D14FF0010C0CFA00FCC2F817
:1017F00010C0401C0828D1D31460B1F800C0BCF15F
:10180000FF0F34DD546800202EE000F1080C4FF08B
:10181000010808FA0CF3B1F800C00CEA03069E4276
:1018200021D183004FF00F0C0CFA03F7BC4305FAEB
:1018300003FC4CEA040491F803C0BCF1280F05D165
:1018400000F1080C08FA0CF8C2F8148091F803C0F3
:10185000BCF1480F07D100F1080C4FF0010808FA5D
:101860000CF8C2F81080401C0828CED35460BDE8A4
:10187000F0814FF6FF710180022181700421C17057
:1018800070470246002093680B4201D0012000E01F
:10189000002070470146886880B2704702460020E9
:1018A000D3680B4201D0012000E0002070470146C0
:1018B000C86880B2704701617047416170470AB1E2
:1018C000016100E041617047C16070474FF48032B0
:1018D0000A4382618161826182698269704702463E
:1018E0000020424B18684FF68073184040EA0210FF
:1018F00008433E4B186070473D49C8617047F0B5DA
:101900000A46002300240021002500F00046B6F11D
:10191000004F02D1354EF16901E0344E7168C0F3D9
:10192000034583B200F44016B6F5401F08D121F0FC
:1019300070612E4E766826F070662C4F7E6012E045
:1019400000F48016B6F5801F06D1032606FA05F4CA
:10195000A14341F0706106E0460D360103FA06F638
:10196000B14341F0706122B1460D360103FA06F62B
:10197000314300F00046B6F1004F02D11B4EF16139
:1019800001E01A4E7160F0BD30B500228B071C0FCC
:101990000F2303FA04F2154B08338C1053F824304C
:1019A0009343124C08348D1044F8253023468C1094
:1019B00053F824308C07240F00FA04F423430B4C13
:1019C00008348D1044F8253030BD0A49086070474E
:1019D00000080140000C01400010014000140140CB
:1019E00000180140001C014000200140000001409F
:1019F00000002042DC002042DD48006840F0010089
:101A0000DB49086008464068DA490840D849486020
:101A100008460068D8490840D5490860084600686B
:101A200020F4802008600846406820F4FE004860EA
:101A30004FF41F0088607047CD49096821F4803158
:101A4000CB4A11601146096821F480211160B0F57C
:101A5000803F03D0B0F5802F0ED106E0C44909685D
:101A600041F48031C24A116007E0C149096841F47C
:101A7000A021BF4A116000E000BF00BF704710B551
:101A800001460022002300204A11012A02D1B84C4D
:101A9000236806E0022A02D1B54C236A01E0B44C67
:101AA000636A01F01F02012494401C4201D001200E
:101AB00000E0002010BD38B5002000900024002573
:101AC00000BF3120FFF7DBFF05460098401C009067
:101AD0000098B0F5A06F01D0002DF2D03120FFF7B3
:101AE000CEFF08B1012400E00024204638BD0146A5
:101AF00000209F4A106820F0F80040EAC100106002
:101B000070479E490860704702460020984B58680D
:101B100020F47C1042EA01031843954B586070474B
:101B200096490866704701460020914A506820F0A7
:101B300003000843506070478D48406800F00C0077
:101B40007047014600208A4A506820F0F0000843A0
:101B50005060704701460020854A506820F4E060DC
:101B600008435060704701460020814A506820F4C5
:101B7000605040EAC1005060704729B17C4A527AF7
:101B800002437B4B5A7204E0794A527A8243784B83
:101B90005A7270477A490860704701460020744ABB
:101BA000506820F440400843506070470021754A57
:101BB00011706F4A82F82010012802D0042808D141
:101BC00003E001216F4A117004E005216D4A117094
:101BD00000E000BF00BF70476B4908607047644970
:101BE000096A0143624A11627047674944390860D3
:101BF000704730B500210022002400235C4D6D6841
:101C000005F00C0121B1042905D0082923D105E0F4
:101C10005E4D056022E05D4D05601FE0544D6D682E
:101C200005F47012524D6D6805F48034022505EB01
:101C300092421CB9564D554305600BE04C4D6D6802
:101C400015F4003F03D0524D5543056002E04F4D5F
:101C50005543056002E04D4D056000BF00BF444D97
:101C60006D6805F0F00109094A4D6B5C0568DD40BF
:101C700045603F4D6D6805F4E061090A454D6B5CB8
:101C80004568DD4085603A4D6D6805F46051C90ACC
:101C9000404D6B5C4568DD40C560354D6D6805F4B1
:101CA0004041890B3C4D6B5CC568B5FBF3F50561A4
:101CB00030BD29B12E4A526902432D4B5A6104E0CE
:101CC0002B4A526982432A4B5A61704729B1284AEC
:101CD00092690243264B9A6104E0254A9269824345
:101CE000234B9A61704729B1214AD2690243204BA4
:101CF000DA6104E01E4AD26982431D4BDA61704703
:101D000029B11B4AD2680243194BDA6004E0184A31
:101D1000D2688243164BDA60704729B1144A1269BF
:101D20000243134B1A6104E0114A12698243104BBB
:101D30001A61704714494039086070470F49C864F8
:101D400070470B49C87170470948406A40F080707D
:101D500007494862704701460020054A92680A42D6
:101D600001D0012000E000207047014988727047CF
:101D7000001002400000FFF8FFFFF6FE00004242A4
:101D8000D8004242201002408004424200127A00F1
:101D900000093D003C0000204C00002010B5044626
:101DA000FB48844209D101218803FFF7A9FF0021E4
:101DB0004FF48040FFF7A4FF32E0F648844209D197
:101DC00001214804FFF7A9FF00214FF40030FFF77D
:101DD000A4FF25E0F048844209D101218804FFF7DF
:101DE0009CFF00214FF48020FFF797FF18E0EB489D
:101DF000844209D10121C804FFF78FFF00214FF46D
:101E00000020FFF78AFF0BE0E548844208D101215A
:101E10000805FFF782FF00214FF48010FFF77DFFD8
:101E200010BD2DE9F04786B005460E460024A246B7
:101E300000BFA1460027B08900B100BF2F462C8A01
:101E40004CF6FF700440F08804432C82AC894EF6B7
:101E5000F3100440B0883189084371890843044372
:101E6000AC81AC8A4FF6FF400440B0890443AC8299
:101E700001A8FFF7BEFEC648874202D1DDF810A0D8
:101E800001E0DDF80CA0A88910F4004F08D00AEB9F
:101E9000CA0000EB0A1031684900B0FBF1F807E016
:101EA0000AEBCA0000EB0A1031688900B0FBF1F8B8
:101EB0006420B8FBF0F004012009642101FB1089C3
:101EC000A88910F4004F08D0322000EBC900B0FB05
:101ED000F1F000F00700044308E0322000EB0910A5
:101EE0006421B0FBF1F000F00F0004432C8106B038
:101EF000BDE8F0874FF41651016000218180C18058
:101F000001810C21418100218181704710B5024679
:101F10000020108A4FF2FF0318400B884C8823439F
:101F20008C882343CC8823431843108210BD0021A2
:101F3000018041808180C180704721B1828942F453
:101F40000052828104E082894DF6FF731A4082813B
:101F50007047F0B503460024002600250020A1F5B7
:101F600010676A3F00D100BF1846C1F3421401F068
:101F70001F06012707FA06F5012C01D10C3004E0F9
:101F8000022C01D1103000E014301AB107682F4341
:101F9000076002E00768AF430760F0BD1AB1838AAB
:101FA0000B43838202E0838A8B4383827047028AD9
:101FB0004FF6F0731A400282028A0A430282704787
:101FC00082894FF2FF731A40828182890A4382819B
:101FD000704721B1828942F00202828104E0828945
:101FE0004FF6FD731A4082817047028A4FF6DF7305
:101FF0001A400282028A0A430282704721B1028A91
:1020000042F48042028204E0028A4BF6FF731A40D7
:1020100002827047C1F308028280704701468888B7
:10202000C0F308007047818941F001018181704748
:10203000028BD2B20283028B42EA012202837047F2
:10204000028B02F47F420283028B0A4302837047B1
:1020500021B1828A42F02002828204E0828A4FF615
:10206000DF731A408282704721B1828A42F01002E7
:10207000828204E0828A4FF6EF731A4082827047B0
:1020800021B1828A42F00802828204E0828A4FF6FD
:10209000F7731A408282704721B1828942F400426C
:1020A000828103E08289C2F30E028281704721B1EE
:1020B000828A42F40062828204E0828A4FF2FF73D5
:1020C0001A4082827047828A4FF6FB731A408282DE
:1020D000828A0A438282704721B1828A42F00202D8
:1020E000828204E0828A4FF6FD731A408282704732
:1020F00002460020B1F5007F00D100BF13880B42DB
:1021000001D0012000E00020704701F40072B2F518
:10211000007F00D100BFCA430280704770B50246FD
:102120000024002300250020A1F510666A3E00D19E
:1021300000BFC1F3421501F01F03012606FA03F3A5
:10214000012D02D19689334006E0022D02D1168A74
:10215000334001E0968A33400C12012606FA04F45B
:102160001688344013B10CB1012000E0002070BD8E
:1021700010B500220023A1F510646A3C00D100BF15
:102180000A1201249440A3B2DC43048010BD000075
:10219000003801400044004000480040004C00402E
:1021A0000050004010B50446BE48844208D10121C9
:1021B0008014FFF7A5FD0021A014FFF7A1FD16E094
:1021C000B948844208D101210014FFF7A6FD00217F
:1021D0002014FFF7A2FD0AE0B448844207D1012190
:1021E000C013FFF79AFD0021E013FFF796FD10BD25
:1021F00010B50022028802F441520B884C88234318
:102200008C882343CC8823430C8923434C89234364
:102210008C892343CC8923431A430280838B4FF25A
:10222000FF74234083830B8A038210BD2DE9F04F96
:1022300085B005460C464FF0000902274FF0000814
:102240004FF0010B0026B246A88B4FF24001084028
:10225000A88302202884B5F81C90A068022801D128
:1022600000BF38E0A08810B94FF0010B01E04FF03B
:10227000020B8D48854200D100E000BF6846FFF7A1
:10228000B8FCDDF800A0E088B0F5007F0AD14FEA85
:102290001A2000EB80004000A168B0FBF1F0401D67
:1022A00086B20BE04FEA4B10BAFBF0F000EB800077
:1022B0004000A168B0FBF1F0401D86B20A20B6FBD9
:1022C000F0F606F00108A6EB0800C0F34F074FF642
:1022D000FF7000EA0828022F01DBFF2F02DD022732
:1022E0004FF00008E08840EA080038432884A088BE
:1022F000A1890843618808432188084340F40060AD
:1023000040EA0909A5F81C9005B0BDE8F08F00214E
:10231000018041808180C180018141818181C181B1
:102320000721018270470021018041808180C180A6
:102330000221816000218181704721B1028842F031
:102340004002028004E002884FF6BF731A40028008
:10235000704721B1828B42F48062828304E0828BD9
:102360004FF6FF331A408283704730B500240023B4
:102370000C110125A540ABB21AB185881D4385809B
:1023800002E085889D43858030BD1AB183880B4368
:10239000838002E083888B4383807047818170470C
:1023A000014688897047A1F57E42FF3A04D0028831
:1023B00042F48072028004E002884FF6FF631A4004
:1023C0000280704721B1828842F00402828004E0DA
:1023D00082884FF6FB731A408280704702884FF262
:1023E000FF731A40028002880A4302807047018806
:1023F00041F480510180704721B1028842F40052BB
:10240000028004E002884DF6FF731A400280704794
:1024100002460020012901D0108B00E0908A70470D
:102420000146088A7047B1F5804F04D1028842F412
:102430008042028004E002884BF6FF731A4002805B
:1024400070470246002013890B4201D0012000E0B2
:1024500000207047CA4302817047F0B50246002051
:1024600000240023002501F00F070126BE40B4B26E
:102470000B1101269E40B3B2968806EA0305168921
:10248000264202D00DB1012000E00020F0BD10B5C1
:10249000002201F00F040123A3409AB2D343038129
:1024A00010BD00000030014000380040003C0040FA
:1024B000704700000FB4044910B503AA029800F059
:1024C0003DF810BC5DF814FB380000202DE9F04108
:1024D0000E460446002020622046E168884730B35B
:1024E000252805D0D4E901219047206A401CF2E755
:1024F000E168204600278847050018D0A5F1410073
:10250000192802D820354FF4006732462946204664
:102510002760FDF747FE40B1012804D0F61D26F0E4
:1025200007060836D8E7361DD6E72846DAE7206AD8
:10253000BDE8F0817047704770477047074B70B532
:102540000D467B4400F011F80446284600F020F8C0
:1025500010B14FF0FF3070BD204670BDB1EAFFFFF3
:1025600001694A1C02610878704700B58FB0CDE957
:1025700001310021059105497944CDE90310114647
:102580006846FFF7A3FF0FB000BD0000E5FFFFFFA7
:10259000007B00F080007047754600F029F8AE46D9
:1025A00005006946534620F00700854618B020B55F
:1025B000FEF7CEFDBDE820404FF000064FF00007CB
:1025C0004FF000084FF0000B21F00701AC46ACE8DB
:1025D000C009ACE8C009ACE8C009ACE8C0098D4648
:1025E00070470446AFF300802046FDF7EAFD000087
:1025F000004870476801002010B591EA030F48BFFA
:1026000083F0004300F19682841A71EB030C05D22B
:10261000121943EB0C03001B61EB0C01DFF824E102
:102620004FEA1154A4EB135C1EEA430F18BF9EEA55
:10263000445F73D023EA0E03DCF1200E21EA04513B
:1026400043F4801332D322FA0CFE10EB0E0023FA6F
:102650000CFE41EB0E01CCF1200E03FA0EFE10EB46
:102660000E0051F10001B1F5801FCCF1200E32D2E5
:1026700001EB045112FA0EF2BDE8104058BF70474A
:10268000401C38BF5FEA420218BF7047002814BFE1
:1026900020F0010041F100014FEA410313F5001F52
:1026A00038BF7047A1F1C04100F036BA012A43EBB0
:1026B0000302ACF1200CDCF11F0E32BF4FF0000E14
:1026C00023FA0CF310EB030041EB0451B4EB115F60
:1026D000D0D0A1EB045101F5801149085FEA300028
:1026E00001EB04510ED350F1000038BF12FA0EFE78
:1026F00008D1BDE81040C9E7401C38BF5FEA42027C
:10270000CAD1C3E7BDE810404FEA410313F5001FEB
:1027100038BF7047A1F1C04100F0FEB99EEA445FA6
:1027200008D011EA5E0FBDE8104004BF01F000417F
:1027300000207047BDE8104070B500F09FF900BF61
:1027400064FBBE3E0000E0FF2DE9C04130B4DFF87D
:10275000A0C23CEA111418BF3CEA131400F0EC804C
:1027600081EA03051CEA111444EAD57418BF1CEA77
:10277000131500F0C780A4EB05044FF0004545EAAF
:10278000C12145EAC32341EA505143EA525304F1BF
:102790007F74994204F500344FEAC0204FEAC22208
:1027A00008BF904200F09C804FEA13650FF240167C
:1027B000765D4FEA134506FB05F7C7F1807706FB08
:1027C00007F74FEAD737A7FB03687642C8F580388A
:1027D000A7FB06CE38BFA8F1010807FB08E64FF0BB
:1027E000000EA6FB028CE6FB03CEDCF1000CCEF162
:1027F000004E38BFAEF1010EA6FB0C584FF000079B
:102800004FF00005E6FB0E87A1FB08C6A0FB07CE34
:1028100016EB0E0645F10005E1FB076515F1E04EEC
:102820007EBFA4F580345FEA46066D4116F180074D
:1028300045F100054FEA17274FEA066647EA0567A4
:10284000A6F1DE46B6F1805F4FEA15251FD938465E
:1028500024F0010C05EBC471BCF1FE6F01EB0C110F
:1028600002D8F0BCBDE8008124425CBF01F5801EA7
:102870009EEAC47F02D4F0BCBDE80081244238D473
:10288000F0BCA1F1C041BDE8004100F045B94FEAFC
:10289000D22242EA43524FEAD323A7FB02864FEAF1
:1028A000D02040EA415007FB03661EEA0E0F4FEAB4
:1028B000D12105FB026658BFA6EB0056B6EB0056C9
:1028C0004FEA520E4EEAC37E18EB0E0E56EB530E35
:1028D000BDD518EB02085E417F1C55F10005B6E737
:1028E0004FF480154FF000074FF000064FF000083E
:1028F000ADE7F0BC4FF0000001F1C04101F0004134
:10290000BDE8008111EA0C1F0CEA131500D00CE0A1
:1029100013EA0C1F00F025804FF00000F0BC81EAA4
:10292000030101F00041BDE80081F0BCBDE80041B9
:1029300081EA030100F0F0B8F0BCBDE8004170B5D9
:1029400000F09CF8097EFC3E00F007B881EA030124
:102950004FF0000001F00041704781EA030100F0F0
:10296000DBB8F0BCBDE800414FF0000021497047E2
:10297000FFFDFBF9F7F5F4F2F0EEEDEBE9E8E6E444
:10298000E3E1E0DEDDDBDAD8D7D5D4D3D1D0CFCDCB
:10299000CCCBCAC8C7C6C5C4C2C1C0BFBEBDBCBB04
:1029A000BAB9B8B7B6B5B4B3B2B1B0AFAEADACABFF
:1029B000AAA9A8A8A7A6A5A4A3A3A2A1A09F9F9ED9
:1029C0009D9C9C9B9A99999897979695959493938B
:1029D000929191908F8F8E8E8D8C8C8B8B8A898922
:1029E00088888787868585848483838282818180A5
:1029F0000000FF070000F87F4FEA41034FEA5353FE
:102A0000A3F58063D3F11E03C8BFD3F1210C0CDD05
:102A10004FF0004242EAC12242EA505232FA03FC2D
:102A20008CEAE17CACEBE1707047102BC4BF002056
:102A3000704703F5787CBCF1FF3F04D06FF0004293
:102A400082EA2100704770B500F018F8499224809E
:102A500000207047F2E7B0FA80F310FA03F10AD0D1
:102A6000C3F11D0303F580634FEA41504FEA03525F
:102A700002EBD12170474FF0000070470EF1020EBB
:102A80002EF0030E5EF8046B364205D4012A43EBA8
:102A9000030515F5001F12D8012841EB010C1CF5A8
:102AA000001F0CD80ED14FEAD17C15F5001F0CEB9E
:102AB0004C0C0CF1020C08BF4CEBD37C04E04FF043
:102AC000080C01E04FEAD37C0CEB4C0526FA05F626
:102AD00006F00706B6F1040C06D20EEB860CBDE834
:102AE00070404CF0010C6047DFE80CF0090B02026B
:102AF0004FF000414FF00000A1F5002170BD1946D4
:102B00001046012851EB010418BFD4F5001484BF0E
:102B1000002001F0004170BD0808A0F500114FEA47
:102B20003101704710B591EA030F48BF83F00043AD
:102B30003FF56AAD841A71EB030C07D212198CF0C1
:102B4000004C43EB0C03001B61EB0C01DFF8A4E12C
:102B50004FEA1154A4EB135C1EEA430F18BF9EEA20
:102B6000445F00F0B08023EA6E03524221EA045130
:102B7000C3EB6E0338BF5B1EDCF1200E25D322FAB7
:102B80000CFE10EB0E0043FA0CFE41EB0E01CCF1F3
:102B9000200E03FA0EFE10EB0E0051F10001CCF1F5
:102BA000200E29D412FA0EF201EB0451BDE81040B8
:102BB00058BF7047401C1CBFB2F1004F704700283F
:102BC0000CBF491C20F00100704712EB020E43EBD2
:102BD000030218BF4FF0010E4EEA4202ACF1200C86
:102BE000DCF11E0E54D943FA0CFE10EB0E0051F12D
:102BF000FF31CCF11E0ED5D50EF1010E12FA0EFEEC
:102C0000404141EB010101EB445C5FEA5C5C10D99F
:102C100010EBDE7001EB045138BFBEF1004FBDE890
:102C2000104018BF704700280CBF491C20F001005D
:102C3000704730D24FEAD42C11F5001124F400640F
:102C40001BD0B1FA81F20B3AA41AA41ED2F12003D0
:102C5000914030FA03F31943904001EBCC71002C02
:102C600001EB0451BDE81040A8BF704701F1C0411D
:102C70004FF0000001F000417047B0FA80F310FA05
:102C800003F100D110BDE41A173C4805C90AE4E776
:102C900001EB045110BD491001EB0451BDE8104097
:102CA0004FEA300002E04FF0000170474A0008BFD1
:102CB0000042F8D0B2F5001F28BF704701F0004174
:102CC0004FF0000070479EEA445F07D011EA5E0FA4
:102CD000BDE8104004BF002100207047BDE810404F
:102CE00070B5FFF7CBFE00BF40DFF63E83F000413A
:102CF000104670470000E0FF3443101001344310C9
:102D000010010000242D00080000002050000000E9
:102D10006C010008742D00085000002078070000A6
:102D20008801000800000100000000000000000011
:102D30000000000000A24A040000000000000000A3
:102D4000010203040607080901000000000000005A
:102D50000000000000000000000000000000000073
:102D60000000000001020304010203040607080931
:042D7000020406084B
:0400000508000131BD
:00000001FF
